:100000000C944B010C9473010C9473010C947301C8
:100010000C9473010C9473010C9473010C94730190
:100020000C9473010C9473010C9473010C94730180
:100030000C9473010C9473010C9473010C94730170
:100040000C9408030C9473010C9478030C945203E1
:100050000C9473010C9473010C9473010C94730150
:100060000C9473010C94730100000000250028001B
:100070002B0000000000240027002A0004040404D0
:100080000404040402020202020203030303030342
:10009000010204081020408001020408102001021F
:1000A000040810205B215D204552524F523A2049EE
:1000B0006E636F72726563742068617264776172D7
:1000C0006520636F6E66696775726174696F6E2013
:1000D00064657465637465642E204E6F20666C6180
:1000E0006720666F7220796F7521005B2B5D20544D
:1000F000686520686172647761726520636F6E66FF
:10010000696775726174696F6E20697320636F72BD
:10011000726563742E20546865206669727374205A
:10012000666C61673A20534543434F4E7B54776F6B
:100130005F77697265735F737761705F74776F5F04
:10014000626974737D005B2A5D20496E6974696120
:100150006C697A696E672073797374656D2E2E2EC3
:10016000005B2A5D2057656C636F6D6520746F209E
:1001700074686520534543434F4E20476C69746350
:1001800068204761746521003D3D3D3D3D3D3D3D5D
:100190003D3D3D3D3D3D3D3D3D3D3D3D3D3D3D3D8F
:1001A0003D3D3D3D3D3D3D3D3D3D3D3D3D3D3D3D7F
:1001B0003D3D3D3D3D3D3D3D3D3D3D3D007C2020A7
:1001C000202020202020202020202020202020202F
:1001D000202020202020202020202020202020201F
:1001E000202020202020202020202020202020200F
:1001F000207C007C20202020202020202020202067
:1002000020202020534543434F4E20476C697463A0
:100210006820476174652020202020202020202095
:10022000202020202020207C007C20202020202036
:1002300020202020202020202020202020202020BE
:1002400020202020202020202020202020202020AE
:10025000202020202020202020202020207C003D45
:100260003D3D3D3D3D3D3D3D3D3D3D3D3D3D3D3DBE
:100270003D3D3D3D3D3D3D3D3D3D3D3D3D3D3D3DAE
:100280003D3D3D3D3D3D3D3D3D3D3D3D3D3D3D3D9E
:100290003D3D3D00E40411241FBECFEFD8E0DEBF9A
:1002A000CDBF11E0A0E0B1E0E2E3FAE002C00590CA
:1002B0000D92AC3AB107D9F722E0ACEAB1E001C047
:1002C0001D92A235B207E1F711E0CBE4D1E004C002
:1002D0002197FE010E941105CA34D107C9F70E9477
:1002E000AA030C9417050C9400003FB7F894809172
:1002F000B1019091B201A091B301B091B40126B5C2
:10030000A89B05C02F3F19F00196A11DB11D3FBF4D
:10031000BA2FA92F982F8827BC01CD01620F711D1C
:10032000811D911D42E0660F771F881F991F4A9516
:10033000D1F708958F929F92AF92BF92CF92DF92A2
:10034000EF92FF924B015C010E9475016B017C01F1
:100350000E9475016C197D098E099F09683E7340E2
:1003600081059105A8F321E0821A9108A108B1083E
:1003700088EEC80E83E0D81EE11CF11C81149104A4
:10038000A104B10429F7FF90EF90DF90CF90BF90C8
:10039000AF909F908F900895AF92BF92CF92DF92CF
:1003A000EF92FF920F931F93CF93DF936C017B012A
:1003B0008B01040F151FEB015E01AE18BF08C017BB
:1003C000D10759F06991D601ED91FC910190F0812E
:1003D000E02DC6010995892B79F7C501DF91CF91F1
:1003E0001F910F91FF90EF90DF90CF90BF90AF9053
:1003F0000895FC01538D448D252F30E0842F90E02B
:10040000821B930B541710F0CF960895019708950F
:10041000FC01918D828D981761F0A28DAE0FBF2FD8
:10042000B11D5D968C91928D9F5F9F73928F90E02E
:1004300008958FEF9FEF0895FC01918D828D98179D
:1004400031F0828DE80FF11D858D90E008958FEFDA
:100450009FEF0895FC01918D228D892F90E0805CA3
:100460009F4F821B91098F739927089585EB91E027
:100470000E942A0221E0892B09F420E0822F0895AE
:1004800080E090E0892B29F00E94360281110C94C3
:1004900000000895FC01A48DA80FB92FB11DA35A27
:1004A000BF4F2C91848D90E001968F739927848F94
:1004B000A689B7892C93A089B1898C9183708064B7
:1004C0008C93938D848D981306C00288F389E02D58
:1004D00080818F7D80830895EF92FF920F931F9309
:1004E000CF93DF93EC0181E0888F9B8D8C8D9813E7
:1004F0001AC0E889F989808185FF15C09FB7F894F3
:10050000EE89FF896083E889F9898081837080643E
:1005100080839FBF81E090E0DF91CF911F910F9189
:10052000FF90EF900895F62E0B8D10E00F5F1F4F98
:100530000F731127E02E8C8D8E110CC00FB607FCA7
:10054000FACFE889F989808185FFF5CFCE010E9435
:100550004A02F1CFEB8DEC0FFD2FF11DE35AFF4F57
:10056000F0829FB7F8940B8FEA89FB8980818062C3
:10057000CFCFCF93DF93EC01888D8823B9F0AA8980
:10058000BB89E889F9898C9185FD03C0808186FD4E
:100590000DC00FB607FCF7CF8C9185FFF2CF80819D
:1005A00085FFEDCFCE010E944A02E9CFDF91CF91C6
:1005B0000895FC0101900020E9F73197AF01481B35
:1005C000590BBC0185EB91E00C94CC0185E191E0E5
:1005D0000C94D9020F931F93CF93DF938C01D0E03B
:1005E000C0E0F801EC0FFD1F6491662341F085EB3C
:1005F00091E00E946C02892B11F02196F2CF0E94AB
:10060000E6028C0F9D1FDF91CF911F910F910895EE
:100610001F920F920FB60F9211242F933F938F9337
:100620009F93AF93BF938091AD019091AE01A09144
:10063000AF01B091B0013091AC0123E0230F2D3711
:1006400058F50196A11DB11D2093AC018093AD0119
:100650009093AE01A093AF01B093B0018091B1012E
:100660009091B201A091B301B091B4010196A11D86
:10067000B11D8093B1019093B201A093B301B093E7
:10068000B401BF91AF919F918F913F912F910F90A6
:100690000FBE0F901F90189526E8230F0296A11DFC
:1006A000B11DD2CF1F920F920FB60F9211242F932C
:1006B0003F934F935F936F937F938F939F93AF93EA
:1006C000BF93EF93FF9385EB91E00E944A02FF9165
:1006D000EF91BF91AF919F918F917F916F915F91BA
:1006E0004F913F912F910F900FBE0F901F90189533
:1006F0001F920F920FB60F9211242F938F939F93F7
:10070000EF93FF93E091C501F091C6018081E091E4
:10071000CB01F091CC0182FD1BC090818091CE0174
:100720008F5F8F732091CF01821741F0E091CE014E
:10073000F0E0EB54FE4F958F8093CE01FF91EF9147
:100740009F918F912F910F900FBE0F901F90189532
:100750008081F4CFCF93DF9300D000D0CDB7DEB748
:10076000789484B5826084BD84B5816084BD85B58C
:10077000826085BD85B5816085BD80916E00816098
:1007800080936E001092810080918100826080933E
:100790008100809181008160809381008091800040
:1007A0008160809380008091B10084608093B1006B
:1007B0008091B00081608093B00080917A00846065
:1007C00080937A0080917A00826080937A00809191
:1007D0007A00816080937A0080917A0080688093AB
:1007E0007A001092C100E091C501F091C60182E04B
:1007F0008083E091C101F091C2011082E091C301B8
:10080000F091C40183E380831092CD01E091C9018E
:10081000F091CA0186E08083E091C701F091C801A0
:10082000808180618083E091C701F091C80180815F
:1008300088608083E091C701F091C8018081806861
:100840008083E091C701F091C80180818F7D808312
:1008500045E050E0FA01E057FF4F2491FA01E458D7
:10086000FF4F84918823C9F090E0880F991FFC0105
:10087000EE58FF4F65917491FC01E859FF4FA59127
:10088000B4919FB7F894FB013081822F8095832328
:100890008083EC912E2B2C939FBF4F5F5F4F4D3089
:1008A0005105C1F60E94E6028FE592E00E94EA023D
:1008B00089E292E00E94EA0283EF91E00E94EA025C
:1008C0008DEB91E00E94EA0288E891E00E94EA0242
:1008D00068EE73E080E090E00E949A0181E691E08A
:1008E0000E94EA0286E491E00E94EA0268EE73E068
:1008F00080E090E00E949A0189B193B120910001BB
:10090000807E9F71892B8227833639F58BEE90E0AC
:100910000E94EA0268EB7BE080E090E00E949A018E
:100920000E94E6028091010190910201892B09F455
:1009300044C01C821B8288E191E00E94D90218E128
:100940001A82198289819A818D30904F48F4898169
:100950009A8101969A838983F5CF84EA90E0D8CF73
:100960008B819C8101969C838B8385E391E00E941F
:10097000D9022B813C8181E090E02F3F310519F0B5
:1009800010F090E080E0909302018093010180914B
:10099000010190910201892B11F0115089F60E94FA
:1009A000E6028091010190910201892B09F4BACFEE
:1009B00087E391E00E94D902B3CF81E691E00E94E3
:1009C000D9020E94E602FFCFE5EBF1E0138212822A
:1009D00088EE93E0A0E0B0E084839583A683B7839C
:1009E00087E091E09183808385EC90E09587848710
:1009F00084EC90E09787868780EC90E0918B808BE9
:100A000081EC90E0938B828B82EC90E0958B848BD1
:100A100086EC90E0978B868B118E128E138E148E3F
:100A20000895EE0FFF1F0590F491E02D0994F894BE
:020A3000FFCFF6
:100A3200BEFECA000000006C02CC01F901B9022A14
:100A42000208021C020D0A005B2A5D2047617468DD
:100A52006572696E6720696E6E6572207374726565
:100A62006E677468002E005B2D5D20596F75206CD7
:100A720061636B206469736369706C696E652120C0
:100A82004E6F20666C616720666F7220796F7521E8
:100A9200005B2B5D20546865207365636F6E642074
:100AA200666C61673A20534543434F4E7B596F75DD
:100AB2005F686176655F6D617374657265645F74AA
:100AC20068655F6172745F6F665F6661756C745FA3
:0C0AD200696E6A656374696F6E217D00B7
:00000001FF
